{
  "_format": "hh-sol-artifact-1",
  "contractName": "Transactions",
  "sourceName": "contracts/Transactions.sol",
  "abi": [
    {
      "anonymous": false,
      "inputs": [
        {
          "indexed": false,
          "internalType": "address",
          "name": "sender",
          "type": "address"
        },
        {
          "indexed": false,
          "internalType": "address",
          "name": "reciver",
          "type": "address"
        },
        {
          "indexed": false,
          "internalType": "uint256",
          "name": "amount",
          "type": "uint256"
        },
        {
          "indexed": false,
          "internalType": "uint256",
          "name": "timestamp",
          "type": "uint256"
        },
        {
          "indexed": false,
          "internalType": "string",
          "name": "keyword",
          "type": "string"
        },
        {
          "indexed": false,
          "internalType": "string",
          "name": "message",
          "type": "string"
        }
      ],
      "name": "transfer",
      "type": "event"
    },
    {
      "inputs": [
        {
          "internalType": "address",
          "name": "_reciver",
          "type": "address"
        },
        {
          "internalType": "uint256",
          "name": "_amount",
          "type": "uint256"
        },
        {
          "internalType": "string",
          "name": "_keyword",
          "type": "string"
        },
        {
          "internalType": "string",
          "name": "_message",
          "type": "string"
        }
      ],
      "name": "addToBlockchain",
      "outputs": [],
      "stateMutability": "nonpayable",
      "type": "function"
    },
    {
      "inputs": [
        {
          "internalType": "address",
          "name": "_owner",
          "type": "address"
        }
      ],
      "name": "getTransactionCount",
      "outputs": [
        {
          "internalType": "uint256",
          "name": "",
          "type": "uint256"
        }
      ],
      "stateMutability": "view",
      "type": "function"
    },
    {
      "inputs": [
        {
          "internalType": "address",
          "name": "_owner",
          "type": "address"
        }
      ],
      "name": "getTransactions",
      "outputs": [
        {
          "components": [
            {
              "internalType": "address",
              "name": "sender",
              "type": "address"
            },
            {
              "internalType": "address",
              "name": "reciver",
              "type": "address"
            },
            {
              "internalType": "uint256",
              "name": "amount",
              "type": "uint256"
            },
            {
              "internalType": "uint256",
              "name": "timestamp",
              "type": "uint256"
            },
            {
              "internalType": "string",
              "name": "keyword",
              "type": "string"
            },
            {
              "internalType": "string",
              "name": "message",
              "type": "string"
            }
          ],
          "internalType": "struct Transactions.TransactStruct[]",
          "name": "",
          "type": "tuple[]"
        }
      ],
      "stateMutability": "view",
      "type": "function"
    }
  ],
  "bytecode": "0x608060405234801561001057600080fd5b50610eed806100206000396000f3fe608060405234801561001057600080fd5b50600436106100415760003560e01c80630f8cda201461004657806323ca0cd214610076578063cc2d7ead146100a6575b600080fd5b610060600480360381019061005b919061062b565b6100c2565b60405161006d9190610862565b60405180910390f35b610090600480360381019061008b919061062b565b610343565b60405161009d9190610893565b60405180910390f35b6100c060048036038101906100bb9190610a0f565b61038c565b005b60606000808373ffffffffffffffffffffffffffffffffffffffff1673ffffffffffffffffffffffffffffffffffffffff168152602001908152602001600020805480602002602001604051908101604052809291908181526020016000905b8282101561033857838290600052602060002090600602016040518060c00160405290816000820160009054906101000a900473ffffffffffffffffffffffffffffffffffffffff1673ffffffffffffffffffffffffffffffffffffffff1673ffffffffffffffffffffffffffffffffffffffff1681526020016001820160009054906101000a900473ffffffffffffffffffffffffffffffffffffffff1673ffffffffffffffffffffffffffffffffffffffff1673ffffffffffffffffffffffffffffffffffffffff168152602001600282015481526020016003820154815260200160048201805461021590610add565b80601f016020809104026020016040519081016040528092919081815260200182805461024190610add565b801561028e5780601f106102635761010080835404028352916020019161028e565b820191906000526020600020905b81548152906001019060200180831161027157829003601f168201915b505050505081526020016005820180546102a790610add565b80601f01602080910402602001604051908101604052809291908181526020018280546102d390610add565b80156103205780601f106102f557610100808354040283529160200191610320565b820191906000526020600020905b81548152906001019060200180831161030357829003601f168201915b50505050508152505081526020019060010190610122565b505050509050919050565b6000600160008373ffffffffffffffffffffffffffffffffffffffff1673ffffffffffffffffffffffffffffffffffffffff168152602001908152602001600020549050919050565b6000803373ffffffffffffffffffffffffffffffffffffffff1673ffffffffffffffffffffffffffffffffffffffff1681526020019081526020016000206040518060c001604052803373ffffffffffffffffffffffffffffffffffffffff1681526020018673ffffffffffffffffffffffffffffffffffffffff16815260200185815260200142815260200184815260200183815250908060018154018082558091505060019003906000526020600020906006020160009091909190915060008201518160000160006101000a81548173ffffffffffffffffffffffffffffffffffffffff021916908373ffffffffffffffffffffffffffffffffffffffff16021790555060208201518160010160006101000a81548173ffffffffffffffffffffffffffffffffffffffff021916908373ffffffffffffffffffffffffffffffffffffffff160217905550604082015181600201556060820151816003015560808201518160040190816105039190610cba565b5060a08201518160050190816105199190610cba565b5050507f2c1099b06882867c47ebe58cd76108f9b9077c140102a36d798a5f0671490aa833858542868660405161055596959493929190610de5565b60405180910390a160018060003373ffffffffffffffffffffffffffffffffffffffff1673ffffffffffffffffffffffffffffffffffffffff16815260200190815260200160002060008282546105ac9190610e83565b9250508190555050505050565b6000604051905090565b600080fd5b600080fd5b600073ffffffffffffffffffffffffffffffffffffffff82169050919050565b60006105f8826105cd565b9050919050565b610608816105ed565b811461061357600080fd5b50565b600081359050610625816105ff565b92915050565b600060208284031215610641576106406105c3565b5b600061064f84828501610616565b91505092915050565b600081519050919050565b600082825260208201905092915050565b6000819050602082019050919050565b61068d816105ed565b82525050565b6000819050919050565b6106a681610693565b82525050565b600081519050919050565b600082825260208201905092915050565b60005b838110156106e65780820151818401526020810190506106cb565b60008484015250505050565b6000601f19601f8301169050919050565b600061070e826106ac565b61071881856106b7565b93506107288185602086016106c8565b610731816106f2565b840191505092915050565b600060c0830160008301516107546000860182610684565b5060208301516107676020860182610684565b50604083015161077a604086018261069d565b50606083015161078d606086018261069d565b50608083015184820360808601526107a58282610703565b91505060a083015184820360a08601526107bf8282610703565b9150508091505092915050565b60006107d8838361073c565b905092915050565b6000602082019050919050565b60006107f882610658565b6108028185610663565b93508360208202850161081485610674565b8060005b85811015610850578484038952815161083185826107cc565b945061083c836107e0565b925060208a01995050600181019050610818565b50829750879550505050505092915050565b6000602082019050818103600083015261087c81846107ed565b905092915050565b61088d81610693565b82525050565b60006020820190506108a86000830184610884565b92915050565b6108b781610693565b81146108c257600080fd5b50565b6000813590506108d4816108ae565b92915050565b600080fd5b600080fd5b7f4e487b7100000000000000000000000000000000000000000000000000000000600052604160045260246000fd5b61091c826106f2565b810181811067ffffffffffffffff8211171561093b5761093a6108e4565b5b80604052505050565b600061094e6105b9565b905061095a8282610913565b919050565b600067ffffffffffffffff82111561097a576109796108e4565b5b610983826106f2565b9050602081019050919050565b82818337600083830152505050565b60006109b26109ad8461095f565b610944565b9050828152602081018484840111156109ce576109cd6108df565b5b6109d9848285610990565b509392505050565b600082601f8301126109f6576109f56108da565b5b8135610a0684826020860161099f565b91505092915050565b60008060008060808587031215610a2957610a286105c3565b5b6000610a3787828801610616565b9450506020610a48878288016108c5565b935050604085013567ffffffffffffffff811115610a6957610a686105c8565b5b610a75878288016109e1565b925050606085013567ffffffffffffffff811115610a9657610a956105c8565b5b610aa2878288016109e1565b91505092959194509250565b7f4e487b7100000000000000000000000000000000000000000000000000000000600052602260045260246000fd5b60006002820490506001821680610af557607f821691505b602082108103610b0857610b07610aae565b5b50919050565b60008190508160005260206000209050919050565b60006020601f8301049050919050565b600082821b905092915050565b600060088302610b707fffffffffffffffffffffffffffffffffffffffffffffffffffffffffffffffff82610b33565b610b7a8683610b33565b95508019841693508086168417925050509392505050565b6000819050919050565b6000610bb7610bb2610bad84610693565b610b92565b610693565b9050919050565b6000819050919050565b610bd183610b9c565b610be5610bdd82610bbe565b848454610b40565b825550505050565b600090565b610bfa610bed565b610c05818484610bc8565b505050565b5b81811015610c2957610c1e600082610bf2565b600181019050610c0b565b5050565b601f821115610c6e57610c3f81610b0e565b610c4884610b23565b81016020851015610c57578190505b610c6b610c6385610b23565b830182610c0a565b50505b505050565b600082821c905092915050565b6000610c9160001984600802610c73565b1980831691505092915050565b6000610caa8383610c80565b9150826002028217905092915050565b610cc3826106ac565b67ffffffffffffffff811115610cdc57610cdb6108e4565b5b610ce68254610add565b610cf1828285610c2d565b600060209050601f831160018114610d245760008415610d12578287015190505b610d1c8582610c9e565b865550610d84565b601f198416610d3286610b0e565b60005b82811015610d5a57848901518255600182019150602085019450602081019050610d35565b86831015610d775784890151610d73601f891682610c80565b8355505b6001600288020188555050505b505050505050565b610d95816105ed565b82525050565b600082825260208201905092915050565b6000610db7826106ac565b610dc18185610d9b565b9350610dd18185602086016106c8565b610dda816106f2565b840191505092915050565b600060c082019050610dfa6000830189610d8c565b610e076020830188610d8c565b610e146040830187610884565b610e216060830186610884565b8181036080830152610e338185610dac565b905081810360a0830152610e478184610dac565b9050979650505050505050565b7f4e487b7100000000000000000000000000000000000000000000000000000000600052601160045260246000fd5b6000610e8e82610693565b9150610e9983610693565b9250828201905080821115610eb157610eb0610e54565b5b9291505056fea264697066735822122040811232d949970d25202078b736d660db02a836505359eec698d952405cd81b64736f6c63430008180033",
  "linkReferences": {},
  "deployedLinkReferences": {}
}